{
  "_format": "hh-sol-artifact-1",
  "contractName": "DAO",
  "sourceName": "contracts/DAO.sol",
  "abi": [
    {
      "inputs": [
        {
          "internalType": "uint256",
          "name": "contributionTime",
          "type": "uint256"
        },
        {
          "internalType": "uint256",
          "name": "_voteTime",
          "type": "uint256"
        },
        {
          "internalType": "uint256",
          "name": "_quorum",
          "type": "uint256"
        }
      ],
      "stateMutability": "nonpayable",
      "type": "constructor"
    },
    {
      "inputs": [],
      "name": "admin",
      "outputs": [
        {
          "internalType": "address",
          "name": "",
          "type": "address"
        }
      ],
      "stateMutability": "view",
      "type": "function"
    },
    {
      "inputs": [],
      "name": "availableFunds",
      "outputs": [
        {
          "internalType": "uint256",
          "name": "",
          "type": "uint256"
        }
      ],
      "stateMutability": "view",
      "type": "function"
    },
    {
      "inputs": [],
      "name": "contribute",
      "outputs": [],
      "stateMutability": "payable",
      "type": "function"
    },
    {
      "inputs": [],
      "name": "contributionEnd",
      "outputs": [
        {
          "internalType": "uint256",
          "name": "",
          "type": "uint256"
        }
      ],
      "stateMutability": "view",
      "type": "function"
    },
    {
      "inputs": [
        {
          "internalType": "string",
          "name": "name",
          "type": "string"
        },
        {
          "internalType": "uint256",
          "name": "amount",
          "type": "uint256"
        },
        {
          "internalType": "address payable",
          "name": "recipient",
          "type": "address"
        }
      ],
      "name": "createProposal",
      "outputs": [],
      "stateMutability": "nonpayable",
      "type": "function"
    },
    {
      "inputs": [
        {
          "internalType": "uint256",
          "name": "proposalId",
          "type": "uint256"
        }
      ],
      "name": "executeProposal",
      "outputs": [],
      "stateMutability": "nonpayable",
      "type": "function"
    },
    {
      "inputs": [],
      "name": "getProposals",
      "outputs": [
        {
          "components": [
            {
              "internalType": "uint256",
              "name": "id",
              "type": "uint256"
            },
            {
              "internalType": "string",
              "name": "name",
              "type": "string"
            },
            {
              "internalType": "uint256",
              "name": "amount",
              "type": "uint256"
            },
            {
              "internalType": "address payable",
              "name": "recipient",
              "type": "address"
            },
            {
              "internalType": "uint256",
              "name": "votes",
              "type": "uint256"
            },
            {
              "internalType": "uint256",
              "name": "end",
              "type": "uint256"
            },
            {
              "internalType": "bool",
              "name": "executed",
              "type": "bool"
            }
          ],
          "internalType": "struct DAO.Proposal[]",
          "name": "",
          "type": "tuple[]"
        }
      ],
      "stateMutability": "view",
      "type": "function"
    },
    {
      "inputs": [
        {
          "internalType": "address",
          "name": "",
          "type": "address"
        }
      ],
      "name": "investors",
      "outputs": [
        {
          "internalType": "bool",
          "name": "",
          "type": "bool"
        }
      ],
      "stateMutability": "view",
      "type": "function"
    },
    {
      "inputs": [],
      "name": "nextProposalId",
      "outputs": [
        {
          "internalType": "uint256",
          "name": "",
          "type": "uint256"
        }
      ],
      "stateMutability": "view",
      "type": "function"
    },
    {
      "inputs": [
        {
          "internalType": "uint256",
          "name": "",
          "type": "uint256"
        }
      ],
      "name": "proposals",
      "outputs": [
        {
          "internalType": "uint256",
          "name": "id",
          "type": "uint256"
        },
        {
          "internalType": "string",
          "name": "name",
          "type": "string"
        },
        {
          "internalType": "uint256",
          "name": "amount",
          "type": "uint256"
        },
        {
          "internalType": "address payable",
          "name": "recipient",
          "type": "address"
        },
        {
          "internalType": "uint256",
          "name": "votes",
          "type": "uint256"
        },
        {
          "internalType": "uint256",
          "name": "end",
          "type": "uint256"
        },
        {
          "internalType": "bool",
          "name": "executed",
          "type": "bool"
        }
      ],
      "stateMutability": "view",
      "type": "function"
    },
    {
      "inputs": [],
      "name": "quorum",
      "outputs": [
        {
          "internalType": "uint256",
          "name": "",
          "type": "uint256"
        }
      ],
      "stateMutability": "view",
      "type": "function"
    },
    {
      "inputs": [
        {
          "internalType": "uint256",
          "name": "amount",
          "type": "uint256"
        }
      ],
      "name": "redeem",
      "outputs": [],
      "stateMutability": "nonpayable",
      "type": "function"
    },
    {
      "inputs": [
        {
          "internalType": "address",
          "name": "",
          "type": "address"
        }
      ],
      "name": "shares",
      "outputs": [
        {
          "internalType": "uint256",
          "name": "",
          "type": "uint256"
        }
      ],
      "stateMutability": "view",
      "type": "function"
    },
    {
      "inputs": [],
      "name": "totalShares",
      "outputs": [
        {
          "internalType": "uint256",
          "name": "",
          "type": "uint256"
        }
      ],
      "stateMutability": "view",
      "type": "function"
    },
    {
      "inputs": [
        {
          "internalType": "uint256",
          "name": "amount",
          "type": "uint256"
        },
        {
          "internalType": "address",
          "name": "to",
          "type": "address"
        }
      ],
      "name": "transfer",
      "outputs": [],
      "stateMutability": "nonpayable",
      "type": "function"
    },
    {
      "inputs": [
        {
          "internalType": "uint256",
          "name": "proposalId",
          "type": "uint256"
        }
      ],
      "name": "vote",
      "outputs": [],
      "stateMutability": "nonpayable",
      "type": "function"
    },
    {
      "inputs": [],
      "name": "voteTime",
      "outputs": [
        {
          "internalType": "uint256",
          "name": "",
          "type": "uint256"
        }
      ],
      "stateMutability": "view",
      "type": "function"
    },
    {
      "inputs": [
        {
          "internalType": "uint256",
          "name": "amount",
          "type": "uint256"
        },
        {
          "internalType": "address payable",
          "name": "to",
          "type": "address"
        }
      ],
      "name": "withdraw",
      "outputs": [],
      "stateMutability": "nonpayable",
      "type": "function"
    },
    {
      "stateMutability": "payable",
      "type": "receive"
    }
  ],
  "bytecode": "0x60806040523480156200001157600080fd5b506040516200262938038062002629833981810160405281019062000037919062000136565b600081118015620000485750606481105b6200008a576040517f08c379a00000000000000000000000000000000000000000000000000000000081526004016200008190620001f3565b60405180910390fd5b824262000098919062000244565b600681905550816008819055508060098190555033600a60006101000a81548173ffffffffffffffffffffffffffffffffffffffff021916908373ffffffffffffffffffffffffffffffffffffffff160217905550505050620002a1565b600080fd5b6000819050919050565b6200011081620000fb565b81146200011c57600080fd5b50565b600081519050620001308162000105565b92915050565b600080600060608486031215620001525762000151620000f6565b5b600062000162868287016200011f565b935050602062000175868287016200011f565b925050604062000188868287016200011f565b9150509250925092565b600082825260208201905092915050565b7f71756f72756d206d757374206265206265747765656e203020616e6420313030600082015250565b6000620001db60208362000192565b9150620001e882620001a3565b602082019050919050565b600060208201905081810360008301526200020e81620001cc565b9050919050565b7f4e487b7100000000000000000000000000000000000000000000000000000000600052601160045260246000fd5b60006200025182620000fb565b91506200025e83620000fb565b9250827fffffffffffffffffffffffffffffffffffffffffffffffffffffffffffffffff0382111562000296576200029562000215565b5b828201905092915050565b61237880620002b16000396000f3fe60806040526004361061010c5760003560e01c80636ac1e01f11610095578063ce7c2ac211610064578063ce7c2ac21461037f578063d151b516146103bc578063d7bb99ba146103e7578063db006a75146103f1578063f851a4401461041a5761012b565b80636ac1e01f146102c55780636f7bc9be146102ee578063b7760c8f1461032b578063bcf93dd6146103545761012b565b80631703a018116100dc5780631703a018146101ee5780632ab09d14146102195780633a98ef391461024457806346fcff4c1461026f57806362564c481461029a5761012b565b8062f714ce146101305780630121b93f14610159578063013cf08b146101825780630d61b519146101c55761012b565b3661012b57346005600082825461012391906114cc565b925050819055005b600080fd5b34801561013c57600080fd5b50610157600480360381019061015291906115c0565b610445565b005b34801561016557600080fd5b50610180600480360381019061017b9190611600565b610453565b005b34801561018e57600080fd5b506101a960048036038101906101a49190611600565b6106ad565b6040516101bc97969594939291906116ff565b60405180910390f35b3480156101d157600080fd5b506101ec60048036038101906101e79190611600565b6107a4565b005b3480156101fa57600080fd5b50610203610981565b6040516102109190611775565b60405180910390f35b34801561022557600080fd5b5061022e610987565b60405161023b9190611775565b60405180910390f35b34801561025057600080fd5b5061025961098d565b6040516102669190611775565b60405180910390f35b34801561027b57600080fd5b50610284610993565b6040516102919190611775565b60405180910390f35b3480156102a657600080fd5b506102af610999565b6040516102bc9190611965565b60405180910390f35b3480156102d157600080fd5b506102ec60048036038101906102e79190611abc565b610b84565b005b3480156102fa57600080fd5b5061031560048036038101906103109190611b69565b610db1565b6040516103229190611b96565b60405180910390f35b34801561033757600080fd5b50610352600480360381019061034d9190611bb1565b610dd1565b005b34801561036057600080fd5b50610369610f5a565b6040516103769190611775565b60405180910390f35b34801561038b57600080fd5b506103a660048036038101906103a19190611b69565b610f60565b6040516103b39190611775565b60405180910390f35b3480156103c857600080fd5b506103d1610f78565b6040516103de9190611775565b60405180910390f35b6103ef610f7e565b005b3480156103fd57600080fd5b5061041860048036038101906104139190611600565b6110a3565b005b34801561042657600080fd5b5061042f61123c565b60405161043c9190611c00565b60405180910390f35b61044f8282611262565b5050565b600115156000803373ffffffffffffffffffffffffffffffffffffffff1673ffffffffffffffffffffffffffffffffffffffff16815260200190815260200160002060009054906101000a900460ff161515146104e5576040517f08c379a00000000000000000000000000000000000000000000000000000000081526004016104dc90611c8d565b60405180910390fd5b600060026000838152602001908152602001600020905060001515600360003373ffffffffffffffffffffffffffffffffffffffff1673ffffffffffffffffffffffffffffffffffffffff168152602001908152602001600020600084815260200190815260200160002060009054906101000a900460ff161515146105a0576040517f08c379a000000000000000000000000000000000000000000000000000000000815260040161059790611cf9565b60405180910390fd5b806005015442106105e6576040517f08c379a00000000000000000000000000000000000000000000000000000000081526004016105dd90611d65565b60405180910390fd5b600160003373ffffffffffffffffffffffffffffffffffffffff1673ffffffffffffffffffffffffffffffffffffffff1681526020019081526020016000205481600401600082825461063991906114cc565b925050819055506001600360003373ffffffffffffffffffffffffffffffffffffffff1673ffffffffffffffffffffffffffffffffffffffff168152602001908152602001600020600084815260200190815260200160002060006101000a81548160ff0219169083151502179055505050565b60026020528060005260406000206000915090508060000154908060010180546106d690611db4565b80601f016020809104026020016040519081016040528092919081815260200182805461070290611db4565b801561074f5780601f106107245761010080835404028352916020019161074f565b820191906000526020600020905b81548152906001019060200180831161073257829003601f168201915b5050505050908060020154908060030160009054906101000a900473ffffffffffffffffffffffffffffffffffffffff16908060040154908060050154908060060160009054906101000a900460ff16905087565b600a60009054906101000a900473ffffffffffffffffffffffffffffffffffffffff1673ffffffffffffffffffffffffffffffffffffffff163373ffffffffffffffffffffffffffffffffffffffff1614610834576040517f08c379a000000000000000000000000000000000000000000000000000000000815260040161082b90611e57565b60405180910390fd5b600060026000838152602001908152602001600020905080600501544210610891576040517f08c379a000000000000000000000000000000000000000000000000000000000815260040161088890611ec3565b60405180910390fd5b600015158160060160009054906101000a900460ff161515146108e9576040517f08c379a00000000000000000000000000000000000000000000000000000000081526004016108e090611f2f565b60405180910390fd5b600954606460045483600401546109009190611f7e565b61090a9190611faf565b101561094b576040517f08c379a00000000000000000000000000000000000000000000000000000000081526004016109429061207b565b60405180910390fd5b61097d81600201548260030160009054906101000a900473ffffffffffffffffffffffffffffffffffffffff16611262565b5050565b60095481565b60075481565b60045481565b60055481565b6060600060075467ffffffffffffffff8111156109b9576109b8611991565b5b6040519080825280602002602001820160405280156109f257816020015b6109df61139b565b8152602001906001900390816109d75790505b50905060005b600754811015610b7c57600260008281526020019081526020016000206040518060e001604052908160008201548152602001600182018054610a3a90611db4565b80601f0160208091040260200160405190810160405280929190818152602001828054610a6690611db4565b8015610ab35780601f10610a8857610100808354040283529160200191610ab3565b820191906000526020600020905b815481529060010190602001808311610a9657829003601f168201915b50505050508152602001600282015481526020016003820160009054906101000a900473ffffffffffffffffffffffffffffffffffffffff1673ffffffffffffffffffffffffffffffffffffffff1673ffffffffffffffffffffffffffffffffffffffff16815260200160048201548152602001600582015481526020016006820160009054906101000a900460ff161515151581525050828281518110610b5e57610b5d61209b565b5b60200260200101819052508080610b74906120ca565b9150506109f8565b508091505090565b600115156000803373ffffffffffffffffffffffffffffffffffffffff1673ffffffffffffffffffffffffffffffffffffffff16815260200190815260200160002060009054906101000a900460ff16151514610c16576040517f08c379a0000000000000000000000000000000000000000000000000000000008152600401610c0d90611c8d565b60405180910390fd5b816005541015610c5b576040517f08c379a0000000000000000000000000000000000000000000000000000000008152600401610c529061215e565b60405180910390fd5b6040518060e0016040528060075481526020018481526020018381526020018273ffffffffffffffffffffffffffffffffffffffff1681526020016000815260200160085442610cab91906114cc565b815260200160001515815250600260006007548152602001908152602001600020600082015181600001556020820151816001019080519060200190610cf29291906113f0565b506040820151816002015560608201518160030160006101000a81548173ffffffffffffffffffffffffffffffffffffffff021916908373ffffffffffffffffffffffffffffffffffffffff1602179055506080820151816004015560a0820151816005015560c08201518160060160006101000a81548160ff0219169083151502179055509050508160056000828254610d8d919061217e565b9250508190555060076000815480929190610da7906120ca565b9190505550505050565b60006020528060005260406000206000915054906101000a900460ff1681565b81600160003373ffffffffffffffffffffffffffffffffffffffff1673ffffffffffffffffffffffffffffffffffffffff168152602001908152602001600020541015610e53576040517f08c379a0000000000000000000000000000000000000000000000000000000008152600401610e4a906121fe565b60405180910390fd5b81600160003373ffffffffffffffffffffffffffffffffffffffff1673ffffffffffffffffffffffffffffffffffffffff1681526020019081526020016000206000828254610ea2919061217e565b9250508190555060016000808373ffffffffffffffffffffffffffffffffffffffff1673ffffffffffffffffffffffffffffffffffffffff16815260200190815260200160002060006101000a81548160ff02191690831515021790555081600160008373ffffffffffffffffffffffffffffffffffffffff1673ffffffffffffffffffffffffffffffffffffffff1681526020019081526020016000206000828254610f4f91906114cc565b925050819055505050565b60085481565b60016020528060005260406000206000915090505481565b60065481565b6006544210610fc2576040517f08c379a0000000000000000000000000000000000000000000000000000000008152600401610fb990612290565b60405180910390fd5b60016000803373ffffffffffffffffffffffffffffffffffffffff1673ffffffffffffffffffffffffffffffffffffffff16815260200190815260200160002060006101000a81548160ff02191690831515021790555034600160003373ffffffffffffffffffffffffffffffffffffffff1673ffffffffffffffffffffffffffffffffffffffff168152602001908152602001600020600082825461106891906114cc565b92505081905550346004600082825461108191906114cc565b92505081905550346005600082825461109a91906114cc565b92505081905550565b80600160003373ffffffffffffffffffffffffffffffffffffffff1673ffffffffffffffffffffffffffffffffffffffff168152602001908152602001600020541015611125576040517f08c379a000000000000000000000000000000000000000000000000000000000815260040161111c906121fe565b60405180910390fd5b80600554101561116a576040517f08c379a000000000000000000000000000000000000000000000000000000000815260040161116190612322565b60405180910390fd5b80600160003373ffffffffffffffffffffffffffffffffffffffff1673ffffffffffffffffffffffffffffffffffffffff16815260200190815260200160002060008282546111b9919061217e565b9250508190555080600460008282546111d2919061217e565b9250508190555080600560008282546111eb919061217e565b925050819055503373ffffffffffffffffffffffffffffffffffffffff166108fc829081150290604051600060405180830381858888f19350505050158015611238573d6000803e3d6000fd5b5050565b600a60009054906101000a900473ffffffffffffffffffffffffffffffffffffffff1681565b600a60009054906101000a900473ffffffffffffffffffffffffffffffffffffffff1673ffffffffffffffffffffffffffffffffffffffff163373ffffffffffffffffffffffffffffffffffffffff16146112f2576040517f08c379a00000000000000000000000000000000000000000000000000000000081526004016112e990611e57565b60405180910390fd5b600554821115611337576040517f08c379a000000000000000000000000000000000000000000000000000000000815260040161132e9061215e565b60405180910390fd5b8073ffffffffffffffffffffffffffffffffffffffff166108fc839081150290604051600060405180830381858888f1935050505015801561137d573d6000803e3d6000fd5b508160056000828254611390919061217e565b925050819055505050565b6040518060e00160405280600081526020016060815260200160008152602001600073ffffffffffffffffffffffffffffffffffffffff16815260200160008152602001600081526020016000151581525090565b8280546113fc90611db4565b90600052602060002090601f01602090048101928261141e5760008555611465565b82601f1061143757805160ff1916838001178555611465565b82800160010185558215611465579182015b82811115611464578251825591602001919060010190611449565b5b5090506114729190611476565b5090565b5b8082111561148f576000816000905550600101611477565b5090565b6000819050919050565b7f4e487b7100000000000000000000000000000000000000000000000000000000600052601160045260246000fd5b60006114d782611493565b91506114e283611493565b9250827fffffffffffffffffffffffffffffffffffffffffffffffffffffffffffffffff038211156115175761151661149d565b5b828201905092915050565b6000604051905090565b600080fd5b600080fd5b61153f81611493565b811461154a57600080fd5b50565b60008135905061155c81611536565b92915050565b600073ffffffffffffffffffffffffffffffffffffffff82169050919050565b600061158d82611562565b9050919050565b61159d81611582565b81146115a857600080fd5b50565b6000813590506115ba81611594565b92915050565b600080604083850312156115d7576115d661152c565b5b60006115e58582860161154d565b92505060206115f6858286016115ab565b9150509250929050565b6000602082840312156116165761161561152c565b5b60006116248482850161154d565b91505092915050565b61163681611493565b82525050565b600081519050919050565b600082825260208201905092915050565b60005b8381101561167657808201518184015260208101905061165b565b83811115611685576000848401525b50505050565b6000601f19601f8301169050919050565b60006116a78261163c565b6116b18185611647565b93506116c1818560208601611658565b6116ca8161168b565b840191505092915050565b6116de81611582565b82525050565b60008115159050919050565b6116f9816116e4565b82525050565b600060e082019050611714600083018a61162d565b8181036020830152611726818961169c565b9050611735604083018861162d565b61174260608301876116d5565b61174f608083018661162d565b61175c60a083018561162d565b61176960c08301846116f0565b98975050505050505050565b600060208201905061178a600083018461162d565b92915050565b600081519050919050565b600082825260208201905092915050565b6000819050602082019050919050565b6117c581611493565b82525050565b600082825260208201905092915050565b60006117e78261163c565b6117f181856117cb565b9350611801818560208601611658565b61180a8161168b565b840191505092915050565b61181e81611582565b82525050565b61182d816116e4565b82525050565b600060e08301600083015161184b60008601826117bc565b506020830151848203602086015261186382826117dc565b915050604083015161187860408601826117bc565b50606083015161188b6060860182611815565b50608083015161189e60808601826117bc565b5060a08301516118b160a08601826117bc565b5060c08301516118c460c0860182611824565b508091505092915050565b60006118db8383611833565b905092915050565b6000602082019050919050565b60006118fb82611790565b611905818561179b565b935083602082028501611917856117ac565b8060005b85811015611953578484038952815161193485826118cf565b945061193f836118e3565b925060208a0199505060018101905061191b565b50829750879550505050505092915050565b6000602082019050818103600083015261197f81846118f0565b905092915050565b600080fd5b600080fd5b7f4e487b7100000000000000000000000000000000000000000000000000000000600052604160045260246000fd5b6119c98261168b565b810181811067ffffffffffffffff821117156119e8576119e7611991565b5b80604052505050565b60006119fb611522565b9050611a0782826119c0565b919050565b600067ffffffffffffffff821115611a2757611a26611991565b5b611a308261168b565b9050602081019050919050565b82818337600083830152505050565b6000611a5f611a5a84611a0c565b6119f1565b905082815260208101848484011115611a7b57611a7a61198c565b5b611a86848285611a3d565b509392505050565b600082601f830112611aa357611aa2611987565b5b8135611ab3848260208601611a4c565b91505092915050565b600080600060608486031215611ad557611ad461152c565b5b600084013567ffffffffffffffff811115611af357611af2611531565b5b611aff86828701611a8e565b9350506020611b108682870161154d565b9250506040611b21868287016115ab565b9150509250925092565b6000611b3682611562565b9050919050565b611b4681611b2b565b8114611b5157600080fd5b50565b600081359050611b6381611b3d565b92915050565b600060208284031215611b7f57611b7e61152c565b5b6000611b8d84828501611b54565b91505092915050565b6000602082019050611bab60008301846116f0565b92915050565b60008060408385031215611bc857611bc761152c565b5b6000611bd68582860161154d565b9250506020611be785828601611b54565b9150509250929050565b611bfa81611b2b565b82525050565b6000602082019050611c156000830184611bf1565b92915050565b7f4f6e6c7920696e766573746f72732063616e20706572666f726d20746869732060008201527f6163746976697479000000000000000000000000000000000000000000000000602082015250565b6000611c77602883611647565b9150611c8282611c1b565b604082019050919050565b60006020820190508181036000830152611ca681611c6a565b9050919050565b7f416c726561647920766f74656420666f7220746869732070726f706f73616c00600082015250565b6000611ce3601f83611647565b9150611cee82611cad565b602082019050919050565b60006020820190508181036000830152611d1281611cd6565b9050919050565b7f566f74696e6720706572696f642068617320656e646564000000000000000000600082015250565b6000611d4f601783611647565b9150611d5a82611d19565b602082019050919050565b60006020820190508181036000830152611d7e81611d42565b9050919050565b7f4e487b7100000000000000000000000000000000000000000000000000000000600052602260045260246000fd5b60006002820490506001821680611dcc57607f821691505b602082108103611ddf57611dde611d85565b5b50919050565b7f4f6e6c792061646d696e2063616e20706572666f726d2074686973206163746960008201527f7669747900000000000000000000000000000000000000000000000000000000602082015250565b6000611e41602483611647565b9150611e4c82611de5565b604082019050919050565b60006020820190508181036000830152611e7081611e34565b9050919050565b7f457865637574696f6e20706572696f642068617320656e646564000000000000600082015250565b6000611ead601a83611647565b9150611eb882611e77565b602082019050919050565b60006020820190508181036000830152611edc81611ea0565b9050919050565b7f50726f706f73616c20616c726561647920657865637574656400000000000000600082015250565b6000611f19601983611647565b9150611f2482611ee3565b602082019050919050565b60006020820190508181036000830152611f4881611f0c565b9050919050565b7f4e487b7100000000000000000000000000000000000000000000000000000000600052601260045260246000fd5b6000611f8982611493565b9150611f9483611493565b925082611fa457611fa3611f4f565b5b828204905092915050565b6000611fba82611493565b9150611fc583611493565b9250817fffffffffffffffffffffffffffffffffffffffffffffffffffffffffffffffff0483118215151615611ffe57611ffd61149d565b5b828202905092915050565b7f4e6f7420656e6f75676820766f74657320746f2065786563757465207468652060008201527f70726f706f73616c000000000000000000000000000000000000000000000000602082015250565b6000612065602883611647565b915061207082612009565b604082019050919050565b6000602082019050818103600083015261209481612058565b9050919050565b7f4e487b7100000000000000000000000000000000000000000000000000000000600052603260045260246000fd5b60006120d582611493565b91507fffffffffffffffffffffffffffffffffffffffffffffffffffffffffffffffff82036121075761210661149d565b5b600182019050919050565b7f4e6f7420656e6f7567682066756e647300000000000000000000000000000000600082015250565b6000612148601083611647565b915061215382612112565b602082019050919050565b600060208201905081810360008301526121778161213b565b9050919050565b600061218982611493565b915061219483611493565b9250828210156121a7576121a661149d565b5b828203905092915050565b7f496e73756666696369656e742073686172657320617661696c61626c65000000600082015250565b60006121e8601d83611647565b91506121f3826121b2565b602082019050919050565b60006020820190508181036000830152612217816121db565b9050919050565b7f536f72727920636f6e747269627574696f6e20706572696f6420746f2074686960008201527f732044414f2068617320656e6465640000000000000000000000000000000000602082015250565b600061227a602f83611647565b91506122858261221e565b604082019050919050565b600060208201905081810360008301526122a98161226d565b9050919050565b7f496e73756666696369656e742073686172657320617661696c61626c6520666f60008201527f72207472616e7366657200000000000000000000000000000000000000000000602082015250565b600061230c602a83611647565b9150612317826122b0565b604082019050919050565b6000602082019050818103600083015261233b816122ff565b905091905056fea26469706673582212200d96a41a9cd1c156fb82b09e487f04b39c47f630f2ba37c0f37cabc5bb20d94d64736f6c634300080d0033",
  "linkReferences": {},
  "deployedLinkReferences": {}
}